:020000040800F2
:1000000070080020490100087707000873070008FE
:1000100075070008C90600085D1000080000000010
:10002000000000000000000000000000850E000835
:10003000CB06000800000000C30C0008310F0008C8
:100040006301000863010008630100086301000800
:1000500063010008630100086301000863010008F0
:1000600063010008630100086301000863010008E0
:1000700063010008630100086301000863010008D0
:1000800063010008630100086301000863010008C0
:1000900063010008630100086301000863010008B0
:1000A00063010008630100086301000863010008A0
:1000B0006301000863010008630100086301000890
:1000C0006301000863010008630100086301000880
:1000D0006301000863010008630100086301000870
:1000E0006301000863010008630100086301000860
:1000F0006301000863010008630100086301000850
:10010000630100086301000863010008630100083F
:10011000630100086301000863010008630100082F
:10012000630100086301000863010008630100081F
:10013000DFF810D000F0B6FA004800475119000867
:10014000AFF300807008002006488047064800474B
:10015000FEE7FEE7FEE7FEE7FEE7FEE7FEE7FEE777
:10016000FEE7FEE7350F00083101000810B5002258
:1001700000E0521C835C8C5CA34201D1002BF8D1BF
:10018000D8B2E1B2401A10BD2DE9FE4F804681EA97
:100190000300C00F0C46009021F0004123F0004501
:1001A000B8EB0200A94105D24046214690461C46C4
:1001B0000B46024623F00040104347D0270DC7F3FB
:1001C0000A00C3F30A510290401A019040286BDAEA
:1001D000C3F3130040F4801B0098924620B1002323
:1001E000D2EB030A63EB0B0B01985946C0F14002B6
:1001F000504600F0B0F906460D4650465946019A61
:1002000000F0C8F910EB08006141002487EA1152A0
:1002100084EAE7731A4340D0009A62B3019A012A34
:100220004FEA075215DC001B61EB02014FF0004260
:1002300002EA0752CDE90042001C41F58011324626
:100240002B4600F0C8F903B0BDE8F08F40462146C8
:10025000F9E7001B61EB0201001C41F58013001857
:100260005B412018A2F5001747EB030140EAD57067
:10027000B6196D4111E06D084FEA360645EAC075C2
:100280004FEA0752001B61EB0201001C41F580118F
:1002900049084FEA30000019514132462B4603B05D
:1002A000BDE8F04F00F088B900980122400000231B
:1002B000D0EB020263EBE073009821464FEAE07452
:1002C000B8EB000061EB0401E9E783F000435BE772
:1002D00081F0004158E72DE9FE4F81EA030404F064
:1002E000004421F0004100944FF0000B23F0004344
:1002F00050EA01045ED052EA03045BD0C3F30A540F
:10030000C1F30A552C44A4F2F3340194A0FB025427
:10031000C1F3130141F48011C3F3130343F48013B9
:1003200001FB024400FB034E840A970A44EA81540D
:1003300047EA8357A4FB076802958D0A05FB0785EA
:100340004FEA932C04FB0C542705029D4FEA0658F4
:1003500047EA1637B5EB08056EEB070C870E920ED1
:1003600047EA811742EA8312A7FB0201B6EB0B01B1
:1003700064EB00042B0D43EA0C335E1844EB1C5075
:10038000DA465146E7FB0201C5F313044FEA0B338B
:1003900043EA14534FEA0432019C43EA0603A4F1F2
:1003A0000C040294009CCDE900B400F014F903B0F1
:1003B000BDE8F08F00200146F9E72DE9F04D81EA14
:1003C000030404F0004B21F0004514464FF0000AEE
:1003D00023F0004150EA050220D054EA01021DD06A
:1003E000C5F30A570246C5F31303C1F31300C1F363
:1003F0000A5640F4801543F48013A7EB0608101B3F
:10040000D64608F2FD3873EB050002D308F1010867
:1004100001E092185B41B8F1000F03DA00200146B9
:10042000BDE8F08D00204FF48011064684460EE0B2
:10043000171B73EB050705D3121B63EB050306437C
:100440004CEA010C49084FEA300092185B4150EA2F
:100450000107EDD152EA030012D082EA040083EAD8
:100460000501084305D0101BAB4106D20122002331
:1004700006E000224FF0004302E06FF0010253104B
:100480001AEB06004CEB085110EB0A0041EB0B0194
:10049000BDE8F04D00F090B830B5041E71F10004D5
:1004A00004DB4FF00044404264EB0101141E73F181
:1004B000000405DB1C464FF00043524263EB04038B
:1004C000994208BF904230BD30B50B46014600202E
:1004D0002022012409E021FA02F59D4205D303FA06
:1004E00002F5491B04FA02F52844151EA2F1010287
:1004F000F1DC30BD2DE9F05F0546002092469B46B9
:1005000088460646814640241BE028464146474629
:10051000224600F02FF853465A46C01A914110D394
:1005200011461846224600F016F82D1A67EB01080E
:100530004F4622460120002100F00DF817EB00097C
:100540004E41201EA4F10104DFDC484631462A4614
:100550004346BDE8F09F202A04DB203A00FA02F16E
:10056000002070479140C2F1200320FA03F31943A1
:1005700090407047202A04DB203A21FA02F0002143
:10058000704721FA02F3D040C2F1200291400843A3
:1005900019467047202A06DBCB17203A41FA02F0B1
:1005A00043EAE07306E041FA02F3D040C2F12002D0
:1005B000914008431946704710B5141E73F10004AA
:1005C00008DA401C41F1000192185B411A4301D145
:1005D00020F0010010BD2DE9F04D92469B4611B16F
:1005E000B1FA81F202E0B0FA80F220329046FFF7D1
:1005F000B2FF04460F4640EA0A0041EA0B015346A7
:100600005A46084313D0114653EA010019D0C8F1E5
:1006100040025046FFF7AEFF05460E46504659468B
:100620004246FFF798FF084305D0012004E020462A
:100630003946BDE8F08D0020054346EAE0762C43BC
:1006400037430A986305E40AA0EB08000022FD0A7C
:1006500044EA47540A3002D500200146E9E7010583
:1006600010196941DDE9084500196941BDE8F04DFF
:10067000A2E7C1F30A52C1F3130140F2FF3341F480
:1006800080119A4202DA00200146704740F233435B
:100690009A42A2F2334202DC5242FFF76BBFFFF7ED
:1006A0005ABF0000064C074D06E0E06840F0010329
:1006B00094E8070098471034AC42F6D3FFF73CFDAE
:1006C0004824000868240008FEE77047F0B5CC789D
:1006D000002204F00F03E40601D58C7823430C7844
:1006E0004FF00F0C14F0FF0F4FF0010E1BD00568F8
:1006F0000E880EFA02F42640A64210D196000CFA9B
:1007000006F725EA070703FA06F5CE783D43282EBB
:1007100002D0482E02D002E0446100E00461521C85
:10072000082AE5D305600A88FF2A1CD944680022FC
:1007300002F108060EFA06F50E882E40AE420ED1E2
:1007400096000CFA06F7BC4303FA06F7CE783C4352
:10075000282E00D14561CE78482E00D10561521C6B
:10076000082AE5D34460F0BD0AB1016170474161D8
:100770007047FEE7FEE7704710B50021074C0A46B8
:10078000002004EBC1131A54401CC0B28028FAD3D5
:10079000491CC9B20829F3D310BD00007000002025
:1007A000F0B501EB030C20E00446871819E07F2C1C
:1007B00015D8002913DB3F2911DCCB1701EB537649
:1007C000F5100B4B26F0070603EBC5132344A1EBF2
:1007D000060E1D78012606FA0EF6B5431D70641C40
:1007E00024B2A742E3DC491C09B28C45DCDCF0BD35
:1007F00070000020F8B50121082000F06FFA1024E5
:100800008DF803404020ADF80000124E02258DF80F
:10081000025069463046FFF759FF8DF803408020AB
:10082000ADF800008DF8025069463046FFF74EFFE4
:1008300000214FF47A720020401C9042FCD3491CE6
:100840009142F8D3012000F003FA012000F008FAE9
:10085000F8BD0000000C014070B50024054680265C
:1008600026FA04F0284000D0012000F0F9F9012018
:1008700000F0EEF9002000F0EBF9641CE4B2082C63
:10088000EED3012000F0E4F9BDE87040002000F054
:10089000DFB910B5012000F0E3F9012000F0D8F92C
:1008A000002000F0DDF9BDE81040002000F0D0B9D4
:1008B00010B5002000F0D4F9012000F0C9F9BDE81E
:1008C0001040012000F0CCB910B5FFF793FFAE2027
:1008D00000F0CEF9D52000F0CBF9802000F0C8F967
:1008E000A82000F0C5F93F2000F0C2F9D32000F0A5
:1008F000BFF9002000F0BCF9402000F0B9F9A120B8
:1009000000F0B6F9C82000F0B3F9DA2000F0B0F931
:10091000122000F0ADF9812000F0AAF9CF2000F0FC
:10092000A7F9D92000F0A4F9F12000F0A1F9DB200B
:1009300000F09EF9302000F09BF9A42000F098F917
:10094000A62000F095F98D2000F092F9142000F017
:100950008FF9AF2000F08CF9FFF70EFFBDE81040D3
:1009600000F062B90346012000E05843491EFCD262
:10097000704710B50C4640F0B00000F079F9102037
:1009800040EA141000F074F904F00F00BDE81040C4
:1009900000F06EB908B5082B0DD0062B0AD10A4B12
:1009A00002EB420203EB4202C03A00920823062205
:1009B00000F00EF808BD054B03EB0212A2F5007221
:1009C000102300920822F3E708210008181B0008F2
:1009D0002DE9FF4F1F4616460D460024DDF834A0D2
:1009E0000098FFF7DDFE7F1EF81707EB507001211E
:1009F000DFF88CB001EBE00E3DE0002037E000991D
:100A00000B187F2B31D8E91705EB5171CA1021F073
:100A10000701691A002D03DA521E083112B209B219
:100A20002244072A0ED804FB06F70AEB00080BEB5A
:100A3000C21917F8087019F803C08F404CEA070C68
:100A400009F803C0571C072F0FD80BEBC21204FB89
:100A500006F70AEB000C1A4417F80C7012F8803FE6
:100A6000C1F10801CF403B431370401CC0B2B042FB
:100A7000C5D3641CE4B2A645BFDCBDE8FF8F00000F
:100A8000700000202DE9F0471D4617468A46804633
:100A900000244FF00A09089E14E0291B0A20491E71
:100AA000FFF760FFB7FBF0F1B1FBF9F209FB12129F
:100AB00004FB068000B2334651463032FFF76AFF2E
:100AC000641CE4B2AC42E8D3BDE8F0872DE9FF4FE7
:100AD000002483B09946164682462546A34698E0F0
:100AE000100610D48DF80420641C0AEB0500A4B293
:100AF0008DF805B000B24B460499FFF74BFF05EBAC
:100B0000090085B285E00620B0EB521F0DD1641CB0
:100B1000A0B28DF80420315C00297ED08DF805103C
:100B2000401C84B28DF806B037E00E20B0EB121FE7
:100B300014D1641CA0B28DF80420315C00296CD063
:100B4000401C80B28DF80510315C002965D08DF80D
:100B50000610401C84B28DF807B01EE01E20B0EBDA
:100B6000D20F1CD1641CA0B28DF80420315C002986
:100B700053D0401C80B28DF80510315C00294CD058
:100B8000401C80B28DF80610315C002945D0401C15
:100B90008DF8071084B28DF808B0002709E0641CB6
:100BA000A4B236E0404601A9FFF7E0FA68B17F1C25
:100BB000BFB207EB870000EB471119480844804695
:100BC00018A1FFF7D3FA0028ECD1B9F1080F03D030
:100BD000B9F1060F1DD112E007EB870000EB4711BA
:100BE0000F4810230844401D00900AEB050000B296
:100BF0001A460499FFF7ECFE103509E00DE00AEB08
:100C0000050000B206233F220499FFF7C3FEAD1D85
:100C1000ADB2325D002A7FF463AF07B0BDE8F08F5C
:100C2000422300080000000070B5084D0024002198
:100C30002046FFF79EFE05EBC410802100F029F846
:100C4000641CE4B2082CF2D370BD000070000020D8
:100C5000024640210148FFF787BD0000000C01401B
:100C6000024680210148FFF77FBD0000000C0140D3
:100C700010B50446FFF70DFE7820FFF7EDFD0020CC
:100C8000FFF7EAFD2046FFF7E7FDBDE81040FFF75C
:100C90000FBE70B50D460646FFF7FBFD7820FFF747
:100CA000DBFD4020FFF7D8FD002404E0305DFFF7B6
:100CB000D3FD641CE4B2AC42F8D3BDE87040FFF74A
:100CC000F7BD7047044A0029D16901D0014300E013
:100CD0008143D1617047000000100240044A00299E
:100CE000916901D0014300E08143916170470000A8
:100CF0000010024030B5204A5168204B11F00C0121
:100D000003D0042901D0082901D0036012E0516802
:100D1000536801F470114FF0020413F4803F04EBA8
:100D2000914102D053689B0301D5154B00E0134B52
:100D30005943016051680F2303EA1111114B5C5CA8
:100D40000168E14041605468072505EA14241C5DF0
:100D500021FA04F48460546805EAD4241B5DD94068
:100D6000C1605268032303EA9232064B1B1F9A5C50
:100D7000B1FBF2F1016130BD0010024000127A00B7
:100D800000093D0004000020F8B50D460446254941
:100D90002448083150F8240051F82410084340F04A
:100DA00001000121FFF79AFF1E4808389CB350F854
:100DB00024000121FFF786FF18208DF80300194851
:100DC0006946183830F81400ADF8000003208DF89B
:100DD0000200154850F82400FFF778FC04208DF835
:100DE000030010486946143830F81400ADF80000CC
:100DF0000D48083050F82400FFF768FC0A4E2946D9
:100E0000083E56F8240000F0CFF856F824000121DF
:100E100000F0B8F8F8BDFFE700680121FFF75EFFBA
:100E2000CAE70000881A00081C00002038B50446F4
:100E30000C48012150F82400FFF750FF094869468B
:100E4000203830F81400ADF8000010208DF80300B1
:100E500003208DF80200044850F82400FFF736FC08
:100E600038BD0000981A00082C0000200349044AED
:100E700031F8101052F8200001617047781A00080C
:100E80002C000020704700000CB50022264800927C
:100E90000192016841F4803101604FF4A063016860
:100EA00001F4003101910099491C0091019911B997
:100EB00000999942F3D10168890333D50121019149
:100EC0001A490A6842F010020A600A6822F0070212
:100ED0000A600A6842F002020A60416841604168A3
:100EE0004160416841F480614160416821F47C11B6
:100EF0004160416841F4E8114160016841F080714E
:100F0000016001688901FCD5416821F0030141605D
:100F1000416841F0020141604168C1F38101022949
:100F2000FAD10CBD01920CBD00100240002002401D
:100F3000704700000F4810B5016841F001010160E1
:100F400041680D4A1140416001680C4A114001603E
:100F5000016821F480210160416821F4FE014160B3
:100F60004FF41F018160FFF78FFF05494FF00060CC
:100F7000086010BD001002400000FFF8FFFFF6FE01
:100F800008ED00E00029818902D041F4005101E020
:100F900021F40051818170470246002012880A42E4
:100FA00000D001207047000030B50446008A85B0AB
:100FB0000D464CF6FF710840E98801432182A08963
:100FC0004EF6F3110840A9882A8911436A89024321
:100FD0001143A181A08A4FF6FF410840A98901432E
:100FE000A1826846FFF786FE1948844201D1039822
:100FF00000E00298A189090400EBC00101EB001098
:10100000296801D5490000E08900B0FBF1F06422B5
:10101000B0FBF2F109010B096FF018056B4300EB0F
:101020008300A3891D044FF0320306D503EBC000F3
:10103000B0FBF2F000F0070005E003EB0010B0FB9E
:10104000F2F000F00F000843208105B030BD000031
:1010500000380140C1F3080181807047FEE70000BD
:101060000FB4054B10B503A9044A029800F0DAF852
:1010700010BC5DF814FB00002D1900085C00002076
:1010800002E008C8121F08C1002AFAD17047704751
:10109000002001E001C1121F002AFBD170470000AF
:1010A0002DE9FF5F82B00021DDE90430020DDDF89B
:1010B00040B0034318D044F61050A2F2FF3242432E
:1010C0001514119801281FD0A5EB0B00401C5FEAF6
:1010D000000A4FF000064E4FDFF83891B0465046F8
:1010E00015D5CAF1000413E0119801244AA3012880
:1010F00001D16FEA0B010298119AC0E90031C0E9F1
:10110000024206B0BDE8F09FCBF10000DFE70446E5
:101110000021404A491842EB0450CDE9001012E08A
:10112000E00707D032463B4640464946FFF7D3F832
:101130008046894632463B4610461946FFF7CBF8B3
:1011400006460F466410002CEAD1DDE90401DDE912
:101150000023BAF1000F06DAFFF7BDF842464B460E
:10116000FFF7B9F805E0FFF728F942464B46FFF7CD
:1011700024F904460E460022284BFFF78DF903D8C8
:101180004FF0FF30014607E00022254B2046314654
:10119000FEF7FAFFFFF76DFA102409E0002C0ADBD6
:1011A0000A220023FFF7A6F9039B30321A55641E6A
:1011B00050EA0102F2D1641C039AC4F111031444F1
:1011C000119A012A03D0012208430DD10AE00843F5
:1011D00004D000204FF0110B119072E7A3EB0B0528
:1011E0006D1E0DE05B4504DD4FF0000205F10105C9
:1011F00004E003DA4FF00002A5F10105002AECD06B
:1012000002981199C0E90231C0E9004579E7000070
:10121000000014400000F03F300000000000F043E8
:101220000000E03F2DE9FF4F95B09A4688460646FC
:101230000025EEE1252877D100242746F94A01212F
:10124000039400E0044316F8013F203B01FA03F049
:101250001042F7D130782A2811D06FF02F03307860
:10126000A0F13002092A16D8039A44F0020402EBD6
:10127000820203EB42021044761C0390EFE758F819
:10128000042B0392002A03DA504244F400540390E2
:1012900044F00204761C30782E2816D116F8010F7F
:1012A00044F004042A280DD06FF02F023078A0F10A
:1012B0003003092B09D807EB870302EB4303C71858
:1012C000761CF3E758F8047B761C30786C280FD036
:1012D00006DC4C2817D068280DD06A2814D104E009
:1012E000742810D07A280FD10DE044F400140AE0DD
:1012F00044F4801401E044F440147278824202D134
:1013000004F58014761C761C307866280BD013DC2C
:10131000582877D009DC002875D04528F6D0462813
:10132000F4D047281AD193E118E0632835D0642817
:1013300079D0652812D18BE1702873D008DC67283A
:10134000F1D069286FD06E280DD06F2806D1ACE09F
:1013500073282CD0752874D0782853D0524617990A
:1013600090476D1C54E1C4F30250022809D00328B1
:101370000DD0D8F8001004280DD00D6008F1040835
:1013800046E1D8F80010EA17C1E90052F6E7D8F8AC
:1013900000100D80F2E70D70F0E718F8041B8DF8CF
:1013A000001000208DF80100EB46012003E058F802
:1013B00004BB4FF0FF3061074FF0000102D40DE095
:1013C00009F101018946B9420FDA8145F8DB1BF8C2
:1013D00009100029F4D108E009F101018946814290
:1013E000FADB1BF809100029F6D103985346A0EB4D
:1013F000090721463846179A00F080FA284400EB86
:10140000090507E044E008E10DE01BF8010B524636
:1014100017999047B9F10109F7D25346214638464A
:10142000179AF2E039E00A21C4F302524FF0000BA0
:101430000091022A06D058F8040BC117032A09D0DC
:101440000AE023E008F1070020F00702F2E80201B9
:10145000904605E000B2C117042A01D140B2C1177D
:10146000002906DA0A460021404261EB02012D22E2
:1014700002E0220504D52B228DF80420012203E08E
:10148000E20701D02022F7E7914657E00A2100E069
:1014900010214FF0000B00910BE010214FF0000BDA
:1014A00044F004040827009103E008204FF0000BEB
:1014B0000090C4F30252022A05D058F8040B002110
:1014C000032A08D008E008F1070020F00702F2E83C
:1014D0000201904603E080B2042A00D1C0B24FF06E
:1014E000000922072AD53278702A07D0DDF800C01B
:1014F0008CF0100C5CEA0B0C05D00EE040228DF84D
:101500000420012208E050EA010306D030238DF8C0
:1015100004308DF8052002229146009B83F00803D9
:1015200053EA0B030AD150EA010201D1620705D543
:1015300030228DF804204FF001097F1E3278582A9E
:1015400004D039A20C920CAA02920BE03BA2F9E75C
:101550005B46009AFEF7CEFF0C9B9B5C029A521EE4
:101560000292137050EA0102F2D1029804A9081AFB
:1015700000F1200B600702D524F4803400E001273D
:101580005F4502DDA7EB0B0000E0002000EB0B0144
:10159000009003984944401A0390E00306D4534650
:1015A0002146179A039800F0A9F90544002706E0A0
:1015B00001A85246C05D179990476D1C7F1C4F458E
:1015C000F6DBE0030CD553462146179A039800F04A
:1015D00095F9054404E030205246179990476D1C58
:1015E0000099481E00900029F5DC08E00298029955
:1015F00052460078491C0291179990476D1CBBF127
:101600000001ABF1010BF1DC5BE100F065F9054491
:10161000761C307800287FF40DAE19B02846BDE85E
:10162000F08F00000928010030313233343536376D
:10163000383961626364656600000000303132331E
:1016400034353637383941424344454600000000BE
:10165000600700D4062708F1070020F00700F0E833
:101660000223804603F0004C5FEA0C0001D097A0F3
:1016700009E0200501D596A005E0E00701D095A07E
:1016800001E0AFF24C001390307823F0004365285E
:101690000CD006DC452809D046281DD047287FD12C
:1016A0003BE0662818D067287AD136E00021112F58
:1016B00001DB112000E0781CCDE9000104A90CA891
:1016C000FFF7EEFCDDE90D010C9A4FF0000B07F17E
:1016D0000109109200914EE04FF000400097CDE9D3
:1016E000011004A90CA8FFF7DBFCDDE90D020C9B3F
:1016F0000F994FF0000B91461093009211B9791C8D
:1017000000EB0109B7EB090003D4C0F1FF3B07F17F
:101710000109A9EB0700019042E0012F00DA01273F
:101720000021112F01DD112000E03846CDE9000134
:1017300004A90CA8FFF7B4FCDDE90D010C9A009197
:101740004FF0000BB946109221070FD4009A4A457A
:1017500003DA914601E0A9F10109B9F1010F05DDB4
:10176000109AA9F10101515C3029F4D0B84202DA93
:1017700010F1040F03DA0121CDE9011010E0002877
:1017800003DC8344A9EB000102E0411C494500DD74
:101790008946A0EB0B00401C01904FF000400290E6
:1017A000200705D40198484502DB4FF0FF30019037
:1017B00000208DF84B0002980DF14B07B0F1004F5F
:1017C00025D002200C902B200D90029800280CDAD6
:1017D000404202902D200D9007E00A210298FEF76A
:1017E00073FE3031029007F8011D0C99481E0C90D1
:1017F0000029F2DC02980028EFD1791E0D980870BC
:10180000307800F0200040F0450007F8020D11A8E4
:10181000C01BC01D02901398007800B1012000EB9E
:101820000901019801EBE071029801440398401A04
:10183000401E0390E00306D453462146179A0398AE
:1018400000F05CF805441398007818B152461799D7
:1018500090476D1CE00323D553462146179A039801
:1018600000F04CF805441BE0BBF1000F07DB0098CB
:10187000584504DD1098179910F80B0001E01799EE
:1018800030205246904701980BF1010B401E05F1A4
:101890000105019004D12E205246179990476D1CE6
:1018A000B9F10001A9F10109DEDC05E017F8010B2F
:1018B0005246179990476D1C0299481E02900029C4
:1018C000F4DC53462146179A03989EE62D0000004B
:1018D0002B000000200000002DE9F0410446002507
:1018E0001E461746880404D405E039462020B04738
:1018F0006D1C641EF9D52846BDE8F0812DE9F04144
:10190000044600251E469046C80301D5302700E056
:101910002027880404D505E041463846B0476D1CB1
:10192000641EF9D52846BDE8F081000070B5074D6A
:101930000446C1B22846FFF78DFB40212846FFF739
:101940002BFB0028F9D0204670BD00000038014074
:1019500086B00020FFF76AFA0120FFF767FA02203D
:10196000FFF764FA0320FFF761FAFEF7ADFF1F48A7
:101970004FF4E131016000218180C18001818181CA
:101980000C21418101460020FFF7FEF918A11EA09D
:10199000FFF766FB1EA124A0FFF762FB23A129A08D
:1019A000FFF75EFB01A8FFF7A5F928A00199FFF753
:1019B00057FB08232CA200212820FFF787F80820D6
:1019C0000090092310211C20019AFFF75BF8FFF714
:1019D0002BF90020FFF74AFA0120FFF747FA02200F
:1019E000FFF744FA0320FFF741FAFEE7600000200A
:1019F0002053544D333220486967682044656E7324
:101A000069747920000000000A0D20257300000091
:101A1000204465766963652072756E6E696E672015
:101A20006F6E20200000000020257300202020532E
:101A3000544D33323130452D4556414C2020202025
:101A4000000000002025730A0D0000005359534385
:101A50004C4B5F4672657175656E6379203D20253C
:101A6000640A0D2000000000535953434C4B000002
:101A70000002040000040800400080000001000291
:101A8000004000000000020004000000040000000C
:101A9000040000000400000080000000800000003E
:101AA00080000000800000000100002000010020F4
:101AB00000400080080080000400000010000000CA
:101AC0000001000000010000000100000001000012
:101AD00020000000000100000100002000010020A3
:101AE00000400080080080000000020006000600A0
:101AF000060006000300060000000D0008000D00AF
:101B00000E000F0003000700060028001700280041
:101B10002800280009001700000000000000000055
:101B20000000000000000000000000F800000000BD
:101B3000000000333000000000160E00160E0000FA
:101B4000000000000000000040C07840C078400065
:101B5000043F04043F040400007088FC08300000C7
:101B6000001820FF211E0000F008F000E01800001F
:101B700000211C031E211E0000F0088870000000D8
:101B80001E21232419272110000000160E0000003A
:101B90000000000000000000000000E01804020047
:101BA000000000071820400000020418E0000000B8
:101BB0000040201807000000404080F080404000B6
:101BC0000202010F01020200000000F0000000000C
:101BD0000101011F010101000000000000000000E0
:101BE00000B07000000000000000000000000000D5
:101BF00000010101010101010000000000000000DE
:101C00000030300000000000000000008060180478
:101C1000006018060100000000E010080810E00055
:101C2000000F102020100F00001010F8000000001E
:101C30000020203F20200000007008080888700065
:101C400000302824222130000030088888483000E5
:101C50000018202020110E000000C02010F8000005
:101C600000070424243F240000F80888880808009E
:101C70000019212020110E0000E0108888180000B3
:101C8000000F112020110E0000380808C838080085
:101C90000000003F00000000007088080888700005
:101CA000001C222121221C0000E010080810E00086
:101CB0000000312222110F00000000C0C00000000F
:101CC0000000003030000000000000C0C000000034
:101CD000000080B07000000000008040201008006C
:101CE00000010204081020004040404040404000F5
:101CF00004040404040404000008102040800000D0
:101D00000020100804020100007048080808F000D4
:101D10000000003036010000C030C828E810E000A4
:101D20000718272423140B000000C038E00000002F
:101D3000203C23020227382008F888888870000099
:101D4000203F202020110E00C0300808080838006D
:101D5000071820202010080008F808080810E000E4
:101D6000203F202020100F0008F88888E808100085
:101D7000203F20202320180008F88888E808100059
:101D8000203F200003000000C03008080838000091
:101D900007182020221E020008F808000008F80892
:101DA000203F210101213F20000808F80808000019
:101DB0000020203F2020000000000808F80808004C
:101DC000C08080807F00000008F888C028180800C4
:101DD000203F20012638200008F8080000000000FD
:101DE000203F20202020300008F8F800F8F80800F4
:101DF000203F003F003F200008F830C00008F808EE
:101E0000203F200007183F00E01008080810E000FD
:101E10000F10202020100F0008F808080808F00014
:101E2000203F210101010000E01008080810E00037
:101E30000F18242438504F0008F8888888887000CC
:101E4000203F2000030C302000708808080838006C
:101E50000038202121221C00180808F80808180062
:101E60000000203F2000000008F808000008F808E3
:101E7000001F202020201F000878880000C8380894
:101E8000000007380E010000F80800F80008F8000C
:101E9000033C0700073C03000818688080681808A6
:101EA00020302C03032C30200838C800C838080024
:101EB0000000203F2000000010080808C838080073
:101EC0002038262120201800000000FE0202020017
:101ED0000000007F40404000000C30C000000000C7
:101EE000000000010638C00000020202FE000000EF
:101EF000004040407F00000000201008040810202F
:101F000000000000000000000000000000000000D1
:101F100080808080808080800002040800000000B3
:101F200000000000000000000000808080800000B1
:101F30000019242222223F2008F80080800000009F
:101F4000003F112020110E00000000808080000062
:101F5000000E112020201100000000808088F80071
:101F6000000E112020103F200000808080800000A3
:101F7000001F222222221300008080F08888881807
:101F80000020203F20200000000080808080800012
:101F9000006B94949493600008F8008080800000A7
:101FA000203F210000203F20008098980000000082
:101FB0000020203F202000000000008098980000B2
:101FC00000C08080807F000008F8000080808000D2
:101FD000203F24022D302000000808F800000000F7
:101FE0000020203F202000008080808080808000B2
:101FF000203F20003F20003F0080800080800000C4
:1020000000203F2100203F200000808080800000D1
:10201000001F202020201F00808000808000000002
:1020200080FFA12020110E00000000808080800031
:10203000000E112020A0FF80808080008080800022
:1020400020203F212000010000008080808080004F
:102050000033242424241900008080E080800000C4
:102060000000001F20200000808000000080800011
:10207000001F202020103F20808080000080808072
:1020800000010E3008060100808000800080808002
:102090000F300C030C300F00008080008080800027
:1020A0000020312E0E312000808080000080808052
:1020B00080818E7018060100008080808080800002
:1020C0000021302C2221300000000000807C020220
:1020D00000000000003F404000000000FF00000042
:1020E00000000000FF0000000002027C80000000F1
:1020F0000040403F00000000008040408000008021
:1021000000000000000101000000000000000000CD
:10211000002F000000000700070000147F147F1448
:1021200000242A7F2A1200231308646200364955CE
:10213000225000000007000000001C2241000000A7
:1021400041221C000014083E08140008083E08083C
:10215000000000A060000008080808080000606097
:102160000000002010080402003E5149453E0000D6
:10217000427F4000004261514946002141454B31B8
:10218000001814127F10002745454539003C4A4984
:1021900049300001710905030036494949360006F6
:1021A0004949291E0000363600000000563600005E
:1021B00000081422410000141414141400004122D9
:1021C0001408000201510906003E4955592E007CB1
:1021D0001211127C007F49494936003E414141229B
:1021E000007F4141221C007F49494941007F090984
:1021F0000901003E4149497A007F0808087F000034
:10220000417F4100002040413F01007F08142241EE
:10221000007F40404040007F020C027F007F0408A6
:10222000107F003E4141413E007F09090906003E02
:102230004151215E007F091929460046494949312B
:102240000001017F0101003F4040403F001F20404E
:10225000201F003F4038403F00631408146300070C
:102260000870080700615149454300007F41410063
:10227000000204081020000041417F000004020118
:1022800002040040404040400000010204000020E1
:1022900054545478007F484444380038444444201F
:1022A00000384444487F00385454541800087E09CC
:1022B00001020018A4A4A47C007F08040478000094
:1022C000447D4000004080847D00007F1028440051
:1022D0000000417F4000007C04180478007C080462
:1022E000047800384444443800FC2424241800189E
:1022F000242418FC007C080404080048545454208A
:1023000000043F444020003C4040207C001C204012
:10231000201C003C4030403C004428102844001C55
:10232000A0A0A07C004464544C440000087F4100FD
:102330000000007F00000000417F08000008040842
:102340001008A3AC00000000000000000000000026
:1023500000000000000000000058380000000000ED
:1023600000000000000000A1A30000000000000029
:102370000000000000000000000000000000182421
:10238000241800000000000000000000C4E300006A
:1023900000008060F8074020180F08C808082818B7
:1023A00000010000FF00100C0340807F00010618B0
:1023B00000BAC30000001010F01F10F000808282ED
:1023C000E2928A8680004022150816610000408053
:1023D0007F0000000000CAC0000000202020FE2076
:1023E00020FF202020FF20202020000000007F4030
:1023F0004047444444474040400000BDE7000000DF
:10240000000000FE929292FE929292FE0000000066
:1024100008080484621E010001FE0204040808008A
:102420000000000000FF010101310909090989715B
:1024300001010101FFFF8080808080809681808083
:1024400080808080FF0000006824000800000020D9
:102450006000000080100008C82400086000002010
:102460001008000090100008020406080000000098
:1024700001020304010203040607080900380140B1
:1024800000440040000801400008014000080140ED
:1024900000080140001C0140001C0140001C0140DC
:1024A000001C0140000801400010014000200140D4
:1024B00000200140002001400020014000140140A4
:0824C0000020014000000000B3
:0400000508000131BD
:00000001FF
